{
  "_format": "hh-sol-artifact-1",
  "contractName": "BuyMeACoffee",
  "sourceName": "contracts/BuyMeACoffee.sol",
  "abi": [
    {
      "inputs": [
        {
          "internalType": "address payable",
          "name": "_companyAccount",
          "type": "address"
        }
      ],
      "stateMutability": "nonpayable",
      "type": "constructor"
    },
    {
      "inputs": [
        {
          "internalType": "string",
          "name": "name",
          "type": "string"
        },
        {
          "internalType": "string",
          "name": "about",
          "type": "string"
        },
        {
          "internalType": "string",
          "name": "bannerURL",
          "type": "string"
        }
      ],
      "name": "addCreatorAccount",
      "outputs": [
        {
          "components": [
            {
              "internalType": "bytes32",
              "name": "id",
              "type": "bytes32"
            },
            {
              "internalType": "string",
              "name": "name",
              "type": "string"
            },
            {
              "internalType": "string",
              "name": "about",
              "type": "string"
            },
            {
              "internalType": "address payable",
              "name": "walletAddress",
              "type": "address"
            },
            {
              "internalType": "string",
              "name": "bannerURL",
              "type": "string"
            },
            {
              "internalType": "uint256",
              "name": "createdAt",
              "type": "uint256"
            }
          ],
          "internalType": "struct BuyMeACoffee.CreatorAccount",
          "name": "",
          "type": "tuple"
        }
      ],
      "stateMutability": "nonpayable",
      "type": "function"
    },
    {
      "inputs": [
        {
          "internalType": "bytes32",
          "name": "",
          "type": "bytes32"
        }
      ],
      "name": "creatorAccounts",
      "outputs": [
        {
          "internalType": "bytes32",
          "name": "id",
          "type": "bytes32"
        },
        {
          "internalType": "string",
          "name": "name",
          "type": "string"
        },
        {
          "internalType": "string",
          "name": "about",
          "type": "string"
        },
        {
          "internalType": "address payable",
          "name": "walletAddress",
          "type": "address"
        },
        {
          "internalType": "string",
          "name": "bannerURL",
          "type": "string"
        },
        {
          "internalType": "uint256",
          "name": "createdAt",
          "type": "uint256"
        }
      ],
      "stateMutability": "view",
      "type": "function"
    },
    {
      "inputs": [],
      "name": "getAllTips",
      "outputs": [
        {
          "components": [
            {
              "internalType": "bytes32",
              "name": "tipId",
              "type": "bytes32"
            },
            {
              "internalType": "string",
              "name": "name",
              "type": "string"
            },
            {
              "internalType": "string",
              "name": "message",
              "type": "string"
            },
            {
              "internalType": "address",
              "name": "from",
              "type": "address"
            },
            {
              "internalType": "address payable",
              "name": "to",
              "type": "address"
            },
            {
              "internalType": "uint256",
              "name": "amount",
              "type": "uint256"
            },
            {
              "internalType": "uint256",
              "name": "createdAt",
              "type": "uint256"
            }
          ],
          "internalType": "struct BuyMeACoffee.Tip[]",
          "name": "",
          "type": "tuple[]"
        }
      ],
      "stateMutability": "view",
      "type": "function"
    },
    {
      "inputs": [
        {
          "internalType": "address payable",
          "name": "addr",
          "type": "address"
        }
      ],
      "name": "getCreatorBalance",
      "outputs": [
        {
          "internalType": "uint256",
          "name": "",
          "type": "uint256"
        }
      ],
      "stateMutability": "view",
      "type": "function"
    },
    {
      "inputs": [
        {
          "internalType": "address payable",
          "name": "creatorAddress",
          "type": "address"
        }
      ],
      "name": "getCreatorTotalTips",
      "outputs": [
        {
          "internalType": "uint256",
          "name": "",
          "type": "uint256"
        }
      ],
      "stateMutability": "view",
      "type": "function"
    },
    {
      "inputs": [],
      "name": "getCreators",
      "outputs": [
        {
          "components": [
            {
              "internalType": "bytes32",
              "name": "id",
              "type": "bytes32"
            },
            {
              "internalType": "string",
              "name": "name",
              "type": "string"
            },
            {
              "internalType": "string",
              "name": "about",
              "type": "string"
            },
            {
              "internalType": "address payable",
              "name": "walletAddress",
              "type": "address"
            },
            {
              "internalType": "string",
              "name": "bannerURL",
              "type": "string"
            },
            {
              "internalType": "uint256",
              "name": "createdAt",
              "type": "uint256"
            }
          ],
          "internalType": "struct BuyMeACoffee.CreatorAccount[]",
          "name": "",
          "type": "tuple[]"
        }
      ],
      "stateMutability": "view",
      "type": "function"
    },
    {
      "inputs": [],
      "name": "getEscrowBalance",
      "outputs": [
        {
          "internalType": "uint256",
          "name": "",
          "type": "uint256"
        }
      ],
      "stateMutability": "view",
      "type": "function"
    },
    {
      "inputs": [
        {
          "internalType": "address payable",
          "name": "creatorAddress",
          "type": "address"
        },
        {
          "internalType": "uint256",
          "name": "amount",
          "type": "uint256"
        }
      ],
      "name": "getWithdrawalBreakdown",
      "outputs": [
        {
          "internalType": "uint256",
          "name": "payOut",
          "type": "uint256"
        },
        {
          "internalType": "uint256",
          "name": "companyFee",
          "type": "uint256"
        }
      ],
      "stateMutability": "view",
      "type": "function"
    },
    {
      "inputs": [
        {
          "internalType": "string",
          "name": "name",
          "type": "string"
        },
        {
          "internalType": "string",
          "name": "message",
          "type": "string"
        },
        {
          "internalType": "address payable",
          "name": "to",
          "type": "address"
        }
      ],
      "name": "giveTip",
      "outputs": [],
      "stateMutability": "payable",
      "type": "function"
    },
    {
      "inputs": [
        {
          "internalType": "address payable",
          "name": "creatorAddress",
          "type": "address"
        },
        {
          "internalType": "uint256",
          "name": "amount",
          "type": "uint256"
        }
      ],
      "name": "withdrawMyTips",
      "outputs": [],
      "stateMutability": "payable",
      "type": "function"
    },
    {
      "inputs": [
        {
          "internalType": "bytes32",
          "name": "",
          "type": "bytes32"
        }
      ],
      "name": "withdrawals",
      "outputs": [
        {
          "internalType": "bytes32",
          "name": "id",
          "type": "bytes32"
        },
        {
          "internalType": "address payable",
          "name": "withdrawnBy",
          "type": "address"
        },
        {
          "internalType": "address",
          "name": "withdrawFrom",
          "type": "address"
        },
        {
          "internalType": "uint256",
          "name": "timestamp",
          "type": "uint256"
        }
      ],
      "stateMutability": "view",
      "type": "function"
    }
  ],
  "bytecode": "0x60806040523480156200001157600080fd5b506040516200256d3803806200256d8339818101604052810190620000379190620000e8565b806000806101000a81548173ffffffffffffffffffffffffffffffffffffffff021916908373ffffffffffffffffffffffffffffffffffffffff160217905550506200011a565b600080fd5b600073ffffffffffffffffffffffffffffffffffffffff82169050919050565b6000620000b08262000083565b9050919050565b620000c281620000a3565b8114620000ce57600080fd5b50565b600081519050620000e281620000b7565b92915050565b6000602082840312156200010157620001006200007e565b5b60006200011184828501620000d1565b91505092915050565b612443806200012a6000396000f3fe60806040526004361061009c5760003560e01c80637253abef116100645780637253abef1461017e578063b9e69eef146101c0578063c56e610e146101fe578063d44e91e914610229578063e6adc1ee14610266578063efbf64a7146102915761009c565b806309cf7ffc146100a1578063382206ab146100de578063399ddbbd1461011b5780636809bae014610146578063710e560014610162575b600080fd5b3480156100ad57600080fd5b506100c860048036038101906100c39190611480565b6102d1565b6040516100d591906114c6565b60405180910390f35b3480156100ea57600080fd5b5061010560048036038101906101009190611480565b61032c565b60405161011291906114c6565b60405180910390f35b34801561012757600080fd5b50610130610499565b60405161013d9190611737565b60405180910390f35b610160600480360381019061015b9190611785565b6106e6565b005b61017c600480360381019061017791906118fa565b6109eb565b005b34801561018a57600080fd5b506101a560048036038101906101a091906119b1565b610ba4565b6040516101b796959493929190611a46565b60405180910390f35b3480156101cc57600080fd5b506101e760048036038101906101e29190611785565b610d98565b6040516101f5929190611abc565b60405180910390f35b34801561020a57600080fd5b50610213610e56565b60405161022091906114c6565b60405180910390f35b34801561023557600080fd5b50610250600480360381019061024b9190611ae5565b610eb7565b60405161025d9190611c23565b60405180910390f35b34801561027257600080fd5b5061027b61102d565b6040516102889190611d9e565b60405180910390f35b34801561029d57600080fd5b506102b860048036038101906102b391906119b1565b6112ac565b6040516102c89493929190611dcf565b60405180910390f35b6000818073ffffffffffffffffffffffffffffffffffffffff163373ffffffffffffffffffffffffffffffffffffffff161461030c57600080fd5b8273ffffffffffffffffffffffffffffffffffffffff1631915050919050565b6000818073ffffffffffffffffffffffffffffffffffffffff163373ffffffffffffffffffffffffffffffffffffffff1614806103b4575060008054906101000a900473ffffffffffffffffffffffffffffffffffffffff1673ffffffffffffffffffffffffffffffffffffffff163373ffffffffffffffffffffffffffffffffffffffff16145b6103bd57600080fd5b6000805b60038054905081101561048e578473ffffffffffffffffffffffffffffffffffffffff16600382815481106103f9576103f8611e14565b5b906000526020600020906007020160040160009054906101000a900473ffffffffffffffffffffffffffffffffffffffff1673ffffffffffffffffffffffffffffffffffffffff16141561047b576003818154811061045b5761045a611e14565b5b906000526020600020906007020160050154826104789190611e72565b91505b808061048690611ec8565b9150506103c1565b508092505050919050565b60606003805480602002602001604051908101604052809291908181526020016000905b828210156106dd57838290600052602060002090600702016040518060e0016040529081600082015481526020016001820180546104fa90611f40565b80601f016020809104026020016040519081016040528092919081815260200182805461052690611f40565b80156105735780601f1061054857610100808354040283529160200191610573565b820191906000526020600020905b81548152906001019060200180831161055657829003601f168201915b5050505050815260200160028201805461058c90611f40565b80601f01602080910402602001604051908101604052809291908181526020018280546105b890611f40565b80156106055780601f106105da57610100808354040283529160200191610605565b820191906000526020600020905b8154815290600101906020018083116105e857829003601f168201915b505050505081526020016003820160009054906101000a900473ffffffffffffffffffffffffffffffffffffffff1673ffffffffffffffffffffffffffffffffffffffff1673ffffffffffffffffffffffffffffffffffffffff1681526020016004820160009054906101000a900473ffffffffffffffffffffffffffffffffffffffff1673ffffffffffffffffffffffffffffffffffffffff1673ffffffffffffffffffffffffffffffffffffffff16815260200160058201548152602001600682015481525050815260200190600101906104bd565b50505050905090565b818073ffffffffffffffffffffffffffffffffffffffff163373ffffffffffffffffffffffffffffffffffffffff161461071f57600080fd5b60008061072c8585610d98565b9150915060008573ffffffffffffffffffffffffffffffffffffffff168360405161075690611fa3565b60006040518083038185875af1925050503d8060008114610793576040519150601f19603f3d011682016040523d82523d6000602084013e610798565b606091505b50509050806107dc576040517f08c379a00000000000000000000000000000000000000000000000000000000081526004016107d390612004565b60405180910390fd5b60008054906101000a900473ffffffffffffffffffffffffffffffffffffffff1673ffffffffffffffffffffffffffffffffffffffff168260405161082090611fa3565b60006040518083038185875af1925050503d806000811461085d576040519150601f19603f3d011682016040523d82523d6000602084013e610862565b606091505b505080915050806108a8576040517f08c379a000000000000000000000000000000000000000000000000000000000815260040161089f90612096565b60405180910390fd5b600042905060008730836040516020016108c493929190612148565b60405160208183030381529060405280519060200120905060405180608001604052808281526020018973ffffffffffffffffffffffffffffffffffffffff1681526020013073ffffffffffffffffffffffffffffffffffffffff16815260200183815250600560008381526020019081526020016000206000820151816000015560208201518160010160006101000a81548173ffffffffffffffffffffffffffffffffffffffff021916908373ffffffffffffffffffffffffffffffffffffffff16021790555060408201518160020160006101000a81548173ffffffffffffffffffffffffffffffffffffffff021916908373ffffffffffffffffffffffffffffffffffffffff160217905550606082015181600301559050505050505050505050565b60004290506000333086868686604051602001610a0d969594939291906121c1565b60405160208183030381529060405280519060200120905060006040518060e001604052808381526020018781526020018681526020013373ffffffffffffffffffffffffffffffffffffffff1681526020018573ffffffffffffffffffffffffffffffffffffffff1681526020013481526020018481525090506003819080600181540180825580915050600190039060005260206000209060070201600090919091909150600082015181600001556020820151816001019080519060200190610ada92919061131c565b506040820151816002019080519060200190610af792919061131c565b5060608201518160030160006101000a81548173ffffffffffffffffffffffffffffffffffffffff021916908373ffffffffffffffffffffffffffffffffffffffff16021790555060808201518160040160006101000a81548173ffffffffffffffffffffffffffffffffffffffff021916908373ffffffffffffffffffffffffffffffffffffffff16021790555060a0820151816005015560c082015181600601555050505050505050565b6001602052806000526040600020600091509050806000015490806001018054610bcd90611f40565b80601f0160208091040260200160405190810160405280929190818152602001828054610bf990611f40565b8015610c465780601f10610c1b57610100808354040283529160200191610c46565b820191906000526020600020905b815481529060010190602001808311610c2957829003601f168201915b505050505090806002018054610c5b90611f40565b80601f0160208091040260200160405190810160405280929190818152602001828054610c8790611f40565b8015610cd45780601f10610ca957610100808354040283529160200191610cd4565b820191906000526020600020905b815481529060010190602001808311610cb757829003601f168201915b5050505050908060030160009054906101000a900473ffffffffffffffffffffffffffffffffffffffff1690806004018054610d0f90611f40565b80601f0160208091040260200160405190810160405280929190818152602001828054610d3b90611f40565b8015610d885780601f10610d5d57610100808354040283529160200191610d88565b820191906000526020600020905b815481529060010190602001808311610d6b57829003601f168201915b5050505050908060050154905086565b600080838073ffffffffffffffffffffffffffffffffffffffff163373ffffffffffffffffffffffffffffffffffffffff1614610dd457600080fd5b6000610ddf8661032c565b905080851115610e24576040517f08c379a0000000000000000000000000000000000000000000000000000000008152600401610e1b9061229b565b60405180910390fd5b6064600a86610e3391906122bb565b610e3d9190612344565b92508285610e4b9190612375565b935050509250929050565b60008060009054906101000a900473ffffffffffffffffffffffffffffffffffffffff1673ffffffffffffffffffffffffffffffffffffffff163373ffffffffffffffffffffffffffffffffffffffff1614610eb157600080fd5b47905090565b610ebf6113a2565b60004290506000333087878786604051602001610ee1969594939291906123a9565b60405160208183030381529060405280519060200120905060006040518060c001604052808381526020018881526020018781526020013373ffffffffffffffffffffffffffffffffffffffff1681526020018681526020018481525090506002819080600181540180825580915050600190039060005260206000209060060201600090919091909150600082015181600001556020820151816001019080519060200190610f9292919061131c565b506040820151816002019080519060200190610faf92919061131c565b5060608201518160030160006101000a81548173ffffffffffffffffffffffffffffffffffffffff021916908373ffffffffffffffffffffffffffffffffffffffff160217905550608082015181600401908051906020019061101392919061131c565b5060a0820151816005015550508093505050509392505050565b60606002805480602002602001604051908101604052809291908181526020016000905b828210156112a357838290600052602060002090600602016040518060c00160405290816000820154815260200160018201805461108e90611f40565b80601f01602080910402602001604051908101604052809291908181526020018280546110ba90611f40565b80156111075780601f106110dc57610100808354040283529160200191611107565b820191906000526020600020905b8154815290600101906020018083116110ea57829003601f168201915b5050505050815260200160028201805461112090611f40565b80601f016020809104026020016040519081016040528092919081815260200182805461114c90611f40565b80156111995780601f1061116e57610100808354040283529160200191611199565b820191906000526020600020905b81548152906001019060200180831161117c57829003601f168201915b505050505081526020016003820160009054906101000a900473ffffffffffffffffffffffffffffffffffffffff1673ffffffffffffffffffffffffffffffffffffffff1673ffffffffffffffffffffffffffffffffffffffff16815260200160048201805461120890611f40565b80601f016020809104026020016040519081016040528092919081815260200182805461123490611f40565b80156112815780601f1061125657610100808354040283529160200191611281565b820191906000526020600020905b81548152906001019060200180831161126457829003601f168201915b5050505050815260200160058201548152505081526020019060010190611051565b50505050905090565b60056020528060005260406000206000915090508060000154908060010160009054906101000a900473ffffffffffffffffffffffffffffffffffffffff16908060020160009054906101000a900473ffffffffffffffffffffffffffffffffffffffff16908060030154905084565b82805461132890611f40565b90600052602060002090601f01602090048101928261134a5760008555611391565b82601f1061136357805160ff1916838001178555611391565b82800160010185558215611391579182015b82811115611390578251825591602001919060010190611375565b5b50905061139e91906113f1565b5090565b6040518060c00160405280600080191681526020016060815260200160608152602001600073ffffffffffffffffffffffffffffffffffffffff16815260200160608152602001600081525090565b5b8082111561140a5760008160009055506001016113f2565b5090565b6000604051905090565b600080fd5b600080fd5b600073ffffffffffffffffffffffffffffffffffffffff82169050919050565b600061144d82611422565b9050919050565b61145d81611442565b811461146857600080fd5b50565b60008135905061147a81611454565b92915050565b60006020828403121561149657611495611418565b5b60006114a48482850161146b565b91505092915050565b6000819050919050565b6114c0816114ad565b82525050565b60006020820190506114db60008301846114b7565b92915050565b600081519050919050565b600082825260208201905092915050565b6000819050602082019050919050565b6000819050919050565b6115208161150d565b82525050565b600081519050919050565b600082825260208201905092915050565b60005b83811015611560578082015181840152602081019050611545565b8381111561156f576000848401525b50505050565b6000601f19601f8301169050919050565b600061159182611526565b61159b8185611531565b93506115ab818560208601611542565b6115b481611575565b840191505092915050565b60006115ca82611422565b9050919050565b6115da816115bf565b82525050565b6115e981611442565b82525050565b6115f8816114ad565b82525050565b600060e0830160008301516116166000860182611517565b506020830151848203602086015261162e8282611586565b915050604083015184820360408601526116488282611586565b915050606083015161165d60608601826115d1565b50608083015161167060808601826115e0565b5060a083015161168360a08601826115ef565b5060c083015161169660c08601826115ef565b508091505092915050565b60006116ad83836115fe565b905092915050565b6000602082019050919050565b60006116cd826114e1565b6116d781856114ec565b9350836020820285016116e9856114fd565b8060005b85811015611725578484038952815161170685826116a1565b9450611711836116b5565b925060208a019950506001810190506116ed565b50829750879550505050505092915050565b6000602082019050818103600083015261175181846116c2565b905092915050565b611762816114ad565b811461176d57600080fd5b50565b60008135905061177f81611759565b92915050565b6000806040838503121561179c5761179b611418565b5b60006117aa8582860161146b565b92505060206117bb85828601611770565b9150509250929050565b600080fd5b600080fd5b7f4e487b7100000000000000000000000000000000000000000000000000000000600052604160045260246000fd5b61180782611575565b810181811067ffffffffffffffff82111715611826576118256117cf565b5b80604052505050565b600061183961140e565b905061184582826117fe565b919050565b600067ffffffffffffffff821115611865576118646117cf565b5b61186e82611575565b9050602081019050919050565b82818337600083830152505050565b600061189d6118988461184a565b61182f565b9050828152602081018484840111156118b9576118b86117ca565b5b6118c484828561187b565b509392505050565b600082601f8301126118e1576118e06117c5565b5b81356118f184826020860161188a565b91505092915050565b60008060006060848603121561191357611912611418565b5b600084013567ffffffffffffffff8111156119315761193061141d565b5b61193d868287016118cc565b935050602084013567ffffffffffffffff81111561195e5761195d61141d565b5b61196a868287016118cc565b925050604061197b8682870161146b565b9150509250925092565b61198e8161150d565b811461199957600080fd5b50565b6000813590506119ab81611985565b92915050565b6000602082840312156119c7576119c6611418565b5b60006119d58482850161199c565b91505092915050565b6119e78161150d565b82525050565b600082825260208201905092915050565b6000611a0982611526565b611a1381856119ed565b9350611a23818560208601611542565b611a2c81611575565b840191505092915050565b611a4081611442565b82525050565b600060c082019050611a5b60008301896119de565b8181036020830152611a6d81886119fe565b90508181036040830152611a8181876119fe565b9050611a906060830186611a37565b8181036080830152611aa281856119fe565b9050611ab160a08301846114b7565b979650505050505050565b6000604082019050611ad160008301856114b7565b611ade60208301846114b7565b9392505050565b600080600060608486031215611afe57611afd611418565b5b600084013567ffffffffffffffff811115611b1c57611b1b61141d565b5b611b28868287016118cc565b935050602084013567ffffffffffffffff811115611b4957611b4861141d565b5b611b55868287016118cc565b925050604084013567ffffffffffffffff811115611b7657611b7561141d565b5b611b82868287016118cc565b9150509250925092565b600060c083016000830151611ba46000860182611517565b5060208301518482036020860152611bbc8282611586565b91505060408301518482036040860152611bd68282611586565b9150506060830151611beb60608601826115e0565b5060808301518482036080860152611c038282611586565b91505060a0830151611c1860a08601826115ef565b508091505092915050565b60006020820190508181036000830152611c3d8184611b8c565b905092915050565b600081519050919050565b600082825260208201905092915050565b6000819050602082019050919050565b600060c083016000830151611c896000860182611517565b5060208301518482036020860152611ca18282611586565b91505060408301518482036040860152611cbb8282611586565b9150506060830151611cd060608601826115e0565b5060808301518482036080860152611ce88282611586565b91505060a0830151611cfd60a08601826115ef565b508091505092915050565b6000611d148383611c71565b905092915050565b6000602082019050919050565b6000611d3482611c45565b611d3e8185611c50565b935083602082028501611d5085611c61565b8060005b85811015611d8c5784840389528151611d6d8582611d08565b9450611d7883611d1c565b925060208a01995050600181019050611d54565b50829750879550505050505092915050565b60006020820190508181036000830152611db88184611d29565b905092915050565b611dc9816115bf565b82525050565b6000608082019050611de460008301876119de565b611df16020830186611a37565b611dfe6040830185611dc0565b611e0b60608301846114b7565b95945050505050565b7f4e487b7100000000000000000000000000000000000000000000000000000000600052603260045260246000fd5b7f4e487b7100000000000000000000000000000000000000000000000000000000600052601160045260246000fd5b6000611e7d826114ad565b9150611e88836114ad565b9250827fffffffffffffffffffffffffffffffffffffffffffffffffffffffffffffffff03821115611ebd57611ebc611e43565b5b828201905092915050565b6000611ed3826114ad565b91507fffffffffffffffffffffffffffffffffffffffffffffffffffffffffffffffff821415611f0657611f05611e43565b5b600182019050919050565b7f4e487b7100000000000000000000000000000000000000000000000000000000600052602260045260246000fd5b60006002820490506001821680611f5857607f821691505b60208210811415611f6c57611f6b611f11565b5b50919050565b600081905092915050565b50565b6000611f8d600083611f72565b9150611f9882611f7d565b600082019050919050565b6000611fae82611f80565b9150819050919050565b7f6661696c656420746f206d616b65207769746864726177616c21000000000000600082015250565b6000611fee601a836119ed565b9150611ff982611fb8565b602082019050919050565b6000602082019050818103600083015261201d81611fe1565b9050919050565b7f6661696c656420746f2073656e6420746f20636f6d70616e79206163636f756e60008201527f7421000000000000000000000000000000000000000000000000000000000000602082015250565b60006120806022836119ed565b915061208b82612024565b604082019050919050565b600060208201905081810360008301526120af81612073565b9050919050565b60008160601b9050919050565b60006120ce826120b6565b9050919050565b60006120e0826120c3565b9050919050565b6120f86120f382611442565b6120d5565b82525050565b6000612109826120c3565b9050919050565b61212161211c826115bf565b6120fe565b82525050565b6000819050919050565b61214261213d826114ad565b612127565b82525050565b600061215482866120e7565b6014820191506121648285612110565b6014820191506121748284612131565b602082019150819050949350505050565b600081905092915050565b600061219b82611526565b6121a58185612185565b93506121b5818560208601611542565b80840191505092915050565b60006121cd8289612110565b6014820191506121dd8288612110565b6014820191506121ed8287612190565b91506121f98286612190565b915061220582856120e7565b6014820191506122158284612131565b602082019150819050979650505050505050565b7f63616e6e6f74207769746864726177206d6f7265207468616e20796f7572207460008201527f6f74616c2062616c616e63650000000000000000000000000000000000000000602082015250565b6000612285602c836119ed565b915061229082612229565b604082019050919050565b600060208201905081810360008301526122b481612278565b9050919050565b60006122c6826114ad565b91506122d1836114ad565b9250817fffffffffffffffffffffffffffffffffffffffffffffffffffffffffffffffff048311821515161561230a57612309611e43565b5b828202905092915050565b7f4e487b7100000000000000000000000000000000000000000000000000000000600052601260045260246000fd5b600061234f826114ad565b915061235a836114ad565b92508261236a57612369612315565b5b828204905092915050565b6000612380826114ad565b915061238b836114ad565b92508282101561239e5761239d611e43565b5b828203905092915050565b60006123b58289612110565b6014820191506123c58288612110565b6014820191506123d58287612190565b91506123e18286612190565b91506123ed8285612190565b91506123f98284612131565b60208201915081905097965050505050505056fea2646970667358221220097051c8dea526a1df20b9a19a86dd5b3a86fc16c456f027e8b6560f7a2e773c64736f6c63430008090033",
  "linkReferences": {},
  "deployedLinkReferences": {}
}